:100000000C9467040C9486040C9486040C94860467
:100010000C9486040C9486040C9486040C94860438
:100020000C9486040C9486040C9486040C94860428
:100030000C9486040C9486040C9486040C94860418
:100040000C94B2340C9486040C9486040C948604AC
:100050000C9486040C9486040C9486040C948604F8
:100060000C9486040C9486040C9486040C948604E8
:100070000C9486040C9486040C941A0A0C9486043E
:100080000C9486040C9486040C9486040A0D706FFC
:100090006C6C696E67204932430A0D000A0D536586
:1000A0006E64696E672049504D49204D53470A0DD3
:1000B0000049504D4920496E697469616C697A61E3
:1000C00074696F6E0A0D0049324320536F6674776E
:1000D0006172650D000A4D61696E20466C6173683E
:1000E00020426F6F74696E670A0D00486F757374F4
:1000F0006F6E2C20776520686176652074616B6572
:10010000206F6666212069326373772069706D699C
:100110002070726F740A0D0044656661756C74001E
:1001200073746F705F6269740074696D656F757464
:100130002073746F700074696D656F757400575229
:10014000472041444452530A0D0069706D695F7045
:10015000726F636573735F706B743A20756E73753D
:1001600070706F727465642070726F746F636F6CFF
:100170000A00726573706F6E7365206D65737361CD
:100180006765206E6F7420666F756E6420666F728F
:100190007761726420746F206F7468657220706F6D
:1001A0007274730A0D0069706D695F70726F6365B8
:1001B00073735F726573706F6E73653A20696E67F3
:1001C000726573730A0D0069706D695F70726F6399
:1001D0006573735F726571756573743A20656772D4
:1001E0006573730A0D0069706D695F70726F636586
:1001F00073735F726571756573743A2064656661C7
:10020000756C740A0D0069706D695F70726F63655B
:1002100073735F726571756573743A204E45544609
:100220004E5F4E5653544F52455F5245510A0D0092
:1002300069706D695F70726F636573735F7265710A
:10024000756573743A204E4554464E5F46575F526B
:1002500045510A0D0069706D695F70726F63657357
:10026000735F726571756573743A204E4554464EDE
:100270005F4556454E545F5245510A0D0069706DF9
:10028000695F70726F636573735F726571756573B3
:10029000743A204E4554464E5F4150505F5245518E
:1002A0000A0D0069706D695F70726F636573735FCB
:1002B000726571756573743A204E4554464E5F47BA
:1002C000524F55505F455854454E53494F4E5F521B
:1002D00045510A0D0069706D695F70726F636573D7
:1002E000735F726571756573743A20696E677265C4
:1002F00073730A0D0069706D695F64656661756C82
:10030000745F726573706F6E73653A20696E6772A1
:100310006573730A0069706D695F70726F636573EE
:10032000735F66775F7265713A20696E6772657395
:10033000730A0069706D695F70726F636573735FD4
:10034000706B743A206567726573730A0069706D2B
:10035000695F70726F636573735F706B743A207559
:100360006E737570706F727465642070726F746FE5
:10037000636F6C0A0069706D695F70726F6365739B
:10038000735F726573706F6E73653A20656772652F
:1003900073730A0069706D695F70726F6365737360
:1003A0005F706B743A20756E737570706F727465E0
:1003B000642070726F746F636F6C0A0D0069706DEA
:1003C000695F70726F636573735F706B743A204618
:1003D00061756C7479206461746120636865636B16
:1003E00073756D0A0D0069706D695F70726F63657A
:1003F00073735F706B743A204661756C7479206812
:10040000656164657220636865636B73756D0A0D61
:100410000069706D695F70726F636573735F706B95
:10042000743A2049504D422070726F746F636F6C44
:100430000A0D000A0D69706D695F70726F636573F4
:10044000735F706B743A20696E67726573730A0D1F
:100450000069706D695F6765745F6576656E745F6E
:1004600072656365697665723A2065677265737354
:100470000A0069706D695F6765745F6576656E74A3
:100480005F72656365697665723A20696E67726549
:1004900073730A0069706D695F7365745F65766573
:1004A0006E745F72656365697665723A206567721E
:1004B0006573730A0069706D695F7365745F657653
:1004C000656E745F72656365697665723A20696E00
:1004D00067726573730A0069706D695F6576656E32
:1004E000745F68616E646C65723A20696E746572DF
:1004F000727570740A0D0069706D695F6576656E5E
:10050000745F68616E646C65723A207265736574BD
:100510000A0D0069706D695F6576656E745F68616C
:100520006E646C65723A20706F77657220637963D0
:100530006C650A0D0069706D695F6576656E745F44
:1005400068616E646C65723A20706F7765722064C2
:100550006F776E0A0D0069706D695F6576656E7400
:100560005F68616E646C65723A20696E677265736C
:10057000730A0D0069706D695F706C6174666F72EB
:100580006D5F6576656E743A20696E677265737328
:100590000A0D006765745F6C6173745F70726F63DE
:1005A00065737365645F6576656E743A20696E671E
:1005B000726573730A007365745F6C6173745F7046
:1005C000726F6365737365645F6576656E743A20F8
:1005D000696E67726573730A006765745F7065663C
:1005E0005F636F6E6669675F706172616D733A20F9
:1005F000696E67726573730A0069706D695F736510
:10060000745F7065665F636F6E6669675F70617265
:10061000616D733A20696E67726573730A00617267
:100620006D5F7065665F706F7374706F6E655F7419
:10063000696D65723A20696E67726573730A006747
:1006400065745F7065665F6361706162696C69742F
:100650006965733A20696E67726573730A00697021
:100660006D695F70726F636573735F6576656E74D5
:100670005F7265713A20696E67726573730A0D0067
:10068000526573706F6E7365207061636B6167652F
:10069000204E4F4B0A0D00526573706F6E736520CC
:1006A0007061636B616765204F4B0A0D006E6F20B0
:1006B000617661696C61626C6520736C6F74206631
:1006C0006F722074686520636F6D6D616E642E209B
:1006D000657869740A0D000A0D636F6D6D616E6453
:1006E000207375636365737366756C6C79207365CD
:1006F0006E740A0D0077735F70726F636573735F5A
:10070000776F726B5F6C6973743A20756E73757076
:10071000706F727465642070726F746F636F6C0AAF
:100720000D0077735F70726F636573735F776F72BD
:100730006B5F6C6973743A2077735F70726F636577
:1007400073735F696E636F6D696E670A0D0077730F
:100750005F70726F636573735F776F726B5F6C69E5
:1007600073743A20666F756E6420612057535F4141
:1007700043544956455F494E0A0D00636D643E007F
:10078000636D646C696E653A2000636F6D6D616EB8
:1007900064206E6F7420666F756E64000D0A41767A
:1007A00061696C61626C6520636F6D6D616E64730D
:1007B000206172653A0D0A0068656C702020202067
:1007C00020202D20646973706C61797320617661DB
:1007D000696C61626C6520636F6D6D616E64730D31
:1007E0000A00707772202564202564202564202D5E
:1007F000206465765F61646472206368616E6E6513
:100800006C2063685F636F756E0D0A0073656E64BC
:100810005F667275202D2064756D707320636F6D37
:100820006D616E6420617267756D656E74732061B1
:100830007320646563696D616C20696E74656765BA
:1008400072730D0A00746F6F676C655F707772204A
:100850002D20746F6F676C655F7077720D0A0046AC
:10086000414E202564202D20636F6E74726F6C20C2
:1008700066616E7320636F6C6C696E67206D6F6468
:10088000756C650D0A00746D3130305F7570646190
:1008900074655F73656E736F725F636F6D706C65A7
:1008A00074696F6E5F66756E6374696F6E0A0D00B2
:1008B000746D3130305F696E6974206E6F206176BF
:1008C00061696C61626C652077730A0D0000112408
:1008D0001FBECFEFD0E1DEBFCDBF16E0A0E0B1E09C
:1008E000E6EBF5E700E00BBF02C007900D92A032E7
:1008F000B107D9F71DE0A0E2B6E001C01D92A0311A
:10090000B107E1F70E9469050C94D93A0C940000F4
:1009100067E370E0709349086093480848E350E04B
:1009200050934B0840934A0826E330E030934D083B
:1009300020934C0884E080934E0870935008609395
:100940004F08509352084093510830935408209315
:10095000530885E0809355080895BE9AA49A809123
:100960006400826080936400809164008160809361
:100970006400A598AD9AC69A8091650081608093C5
:10098000650020E030E048EC50E0CA010197F1F743
:100990002F5F3F4F83E128383807B9F7AC9A20E042
:1009A00030E048EC50E0CA010197F1F72F5F3F4F6C
:1009B00087E220313807B9F79D99FECFC69820E02D
:1009C00030E048EC50E0CA010197F1F72F5F3F4F4C
:1009D00083E128383807B9F78091650082608093F9
:1009E000650020E030E048EC50E0CA010197F1F7E3
:1009F0002F5F3F4F87E220313807B9F7089583B35F
:100A000000D000D020E031E0EDB7FEB73283218383
:100A100090E0929582958F7089279F7089278170C9
:100A20009070948383830E94673685B390E1892711
:100A300085BB0F900F900F900F900895CF92DF928B
:100A4000EF92FF920F931F9381E00E941F31F62EC9
:100A500082E00E941F31162F83E00E941F31062F73
:100A60008DB79EB708970FB6F8949EBF0FBE8DBF87
:100A7000EDB7FEB7319683E191E0ADB7BEB7129600
:100A80009C938E931197F2821382148315820683AE
:100A900017820E9467368DB79EB708960FB6F894F6
:100AA0009EBF0FBE8DBF8FE697E060E04F2D212FD8
:100AB000EE2439E8C32E38E2D32E0E940F2B81E0BA
:100AC000809358081F910F91FF90EF90DF90CF9087
:100AD00008952F923F924F925F926F927F928F92E2
:100AE0009F92AF92BF92CF92DF92EF92FF920F93BD
:100AF0001F93DF93CF930F92CDB7DEB70E9484345C
:100B00000E94D70967E370E0709349086093480832
:100B100048E350E050934B0840934A0826E330E006
:100B200030934D0820934C0884E080934E087093D6
:100B3000500860934F0850935208409351083093E7
:100B400054082093530885E0809355088CE00E9458
:100B5000EE0982ED99E06EEC79E00E941B3600D040
:100B600000D000D0EDB7FEB731968DE291E0ADB781
:100B7000BEB712969C938E9311978AE491E093836B
:100B8000828386E591E0958384830E946736EDB782
:100B9000FEB736960FB6F894FEBF0FBEEDBF8BEED4
:100BA00090E00E94DD09E0914808F09149084081F9
:100BB00080914E0821E030E0B90102C0660F771F36
:100BC0008A95E2F7462B4083E0914F08F091500858
:100BD000408180915508D90102C0AA0FBB1F8A9598
:100BE000E2F74A2B4083E0914A08F0914B0840819C
:100BF00080914E08B90102C0660F771F8A95E2F70F
:100C0000462B4083E0915108F091520890818091E9
:100C1000550802C0220F331F8A95E2F72095292339
:100C2000208312E00FE5C02E01E0D02EB8ECEB2EB1
:100C3000F12C80E090E0F7013197F1F7019677E22F
:100C400080319707C1F700D000D0EDB7FEB73196DD
:100C5000ADB7BEB71296DC92CE9211971283138273
:100C60000E9467360F900F900F900F90112311F094
:100C70001150DFCF85ED90E00E94DD090E94AD04A8
:100C800080E090E028EC30E0F9013197F1F701962F
:100C9000B7E280319B07C1F787EC90E00E94DD0945
:100CA0000E94D82D0E941B1081E891E06FE770E34D
:100CB0000E94003186E891E06EE175E00E9400310B
:100CC0008AE891E06FE770E30E94003183E991E0E8
:100CD0006FEF74E00E94003181EB90E00E94DD092B
:100CE00080E090E028EC30E0F9013197F1F70196CF
:100CF000EEE480329E07C1F700D08EE991E0ADB7F7
:100D0000BEB712969C938E9311970E946736789483
:100D100082EB91E0EDB7FEB7928381830E94673644
:100D20000F900F900E94CA2DE0915108F091520847
:100D300040818091550821E030E0B90102C0660F82
:100D4000771F8A95E2F746274083E0914A08F091A1
:100D50004B08808190914E0802C0220F331F9A9554
:100D6000E2F782278083A0ECCA2EA1E0DA2EF5ED0F
:100D7000EF2EF1E0FF2EEEEDAE2EE1E0BE2E70E0A4
:100D8000872E72E0972E61E2662E62E0762E55E3A2
:100D9000452E52E0552E4EE4242E42E0342EC20160
:100DA000042D99838CE890E00E94DD096FE677E0DE
:100DB00070935708609356081092890710928A071B
:100DC00010928B0710928C0781E00E94060D0E9402
:100DD000B90EDC019093570880935608009709F4E8
:100DE00027C200D000D02DB73EB72F5F3F4FEDB7E1
:100DF000FEB77282618214968C91D90112968C93FF
:100E0000129713961C920E946736A0915608B091D3
:100E100057080F900F900F900F9014968C91149785
:100E2000882329F110E000D000D02DB73EB72F5F06
:100E30003F4FEDB7FEB7F282E182A10FB11DD4960C
:100E40008C91D90112968C93129713961C920E9442
:100E500067361F5FA0915608B09157080F900F900A
:100E60000F900F9014968C9114971817E0F2CD0103
:100E70000E942C23E0915608F091570880819181BF
:100E8000059709F08FCF81E00E94060DE09156088A
:100E9000F0915708DF01AC5ABF4F6C914581EB5A76
:100EA000FF4F9F010E944D11982F882309F069C2BE
:100EB00000D000D000D0ADB7BEB71196EDB7FEB7E9
:100EC00052824182E0915608F0915708EC5AFF4F48
:100ED000808112968C93129713961C9213971596F5
:100EE0001C921E9214970E9467366DB77EB76A5F98
:100EF0007F4F0FB6F8947EBF0FBE6DBF81E00E949A
:100F0000060DE0915608F0915708DF01AC5ABF4F2B
:100F10006C914581EB5AFF4F9F010E944D11982F14
:100F2000882309F02EC200D000D000D0ADB7BEB7E4
:100F30001196EDB7FEB7018329812283E09156080F
:100F4000F0915708EC5AFF4F808112968C931297BC
:100F500013961C92139715961C921E9214970E943A
:100F600067366DB77EB76A5F7F4F0FB6F8947EBF66
:100F70000FBE6DBF81E00E94060DE0915608F09112
:100F80005708DF01AC5ABF4F6C914581EB5AFF4FB8
:100F90009F010E944D11982F882309F0F2C100D0C3
:100FA00000D000D0ADB7BEB71196EDB7FEB75282F4
:100FB0004182E0915608F0915708EC5AFF4F80812A
:100FC00012968C93129713961C92139715961C9257
:100FD0001E9214970E9467366DB77EB76A5F7F4F87
:100FE0000FB6F8947EBF0FBE6DBF81E00E94060D64
:100FF000E0915608F0915708DF01AC5ABF4F6C9151
:101000004581EB5AFF4F9F010E944D11982F882375
:1010100009F0B7C100D000D000D0ADB7BEB711966F
:10102000EDB7FEB752824182E0915608F091570821
:10103000EC5AFF4F808112968C93129713961C9254
:10104000139715961C921E9214970E9467366DB7DF
:101050007EB76A5F7F4F0FB6F8947EBF0FBE6DBF3D
:1010600081E00E94060DE0915608F0915708DF01DB
:10107000AC5ABF4F6C914581EB5AFF4F9F010E94C4
:101080004D11982F882309F07CC100D000D000D0EA
:10109000ADB7BEB71196EDB7FEB752824182E0916F
:1010A0005608F0915708EC5AFF4F808112968C93A6
:1010B000129713961C92139715961C921E921497D2
:1010C0000E9467366DB77EB76A5F7F4F0FB6F894A0
:1010D0007EBF0FBE6DBF81E00E94060DE0915608F5
:1010E000F0915708DF01AC5ABF4F6C914581EB5A24
:1010F000FF4F9F010E944D11982F882309F041C195
:1011000000D000D000D0ADB7BEB71196EDB7FEB796
:1011100052824182E0915608F0915708EC5AFF4FF5
:10112000808112968C93129713961C9213971596A2
:101130001C921E9214970E9467366DB77EB76A5F45
:101140007F4F0FB6F8947EBF0FBE6DBF81E00E9447
:10115000060DE0915608F0915708DF01AC5ABF4FD9
:101160006C914581EB5AFF4F9F010E944D11982FC2
:10117000882309F006C100D000D000D0ADB7BEB7BB
:101180001196EDB7FEB752824182E0915608F09178
:101190005708EC5AFF4F808112968C931297139642
:1011A0001C92139715961C921E9214970E946736F4
:1011B0006DB77EB76A5F7F4F0FB6F8947EBF0FBEE4
:1011C0006DBF81E00E94060DE0915608F09157082E
:1011D000DF01AC5ABF4F6C914581EB5AFF4F9F0125
:1011E0000E944D11982F882309F0CBC000D000D069
:1011F00000D0EDB7FEB73196ADB7BEB712965C9290
:101200004E921197A0915608B0915708AC5ABF4F13
:101210008C9182831382158214820E946736EDB707
:10122000FEB736960FB6F894FEBF0FBEEDBFBACD2F
:1012300028E833E12115310509F07FC00E947131A2
:101240000E94BC2E80915808882309F4ABCD1092DF
:10125000580800D000D0EDB7FEB73196ADB7BEB795
:101260001296DC92CE92119780917407828313823A
:101270000E9467360F900F900F900F908091740727
:101280008823F9F010E000D000D0ADB7BEB71196BA
:10129000EDB7FEB7F282E182E12FF0E0ED53F84FB7
:1012A000808112968C93129713961C920E94673637
:1012B0001F5F0F900F900F900F9080917407181779
:1012C00010F38CE990E00E94DD0981E00E94060D98
:1012D0006091C3074091740724EC37E00E944D11E0
:1012E000982F882389F500D000D000D0EDB7FEB745
:1012F0003196ADB7BEB71296BC92AE92119780915F
:10130000C30782831382158214820E94673620E00D
:1013100030E0EDB7FEB736960FB6F894FEBF0FBEBD
:10132000EDBF88EC90E00197F1F72F5F3F4FF3E0BE
:10133000283E3F07B1F728E833E188EC90E00197B9
:10134000F1F72150304076CF00D000D000D0EDB77B
:10135000FEB73196ADB7BEB712969C928E9211979A
:101360008091C30782831382948315820E9467361B
:10137000EDB7FEB736960FB6F894FEBF0FBEEDBFC1
:1013800011CD00D000D000D0EDB7FEB73196ADB78B
:10139000BEB712963C922E921197E2CF0E940A0A93
:1013A00090E008950E94F30980E090E00895EAE952
:1013B000F0E08081886980830895FC01009769F0DE
:1013C0009491992351F0319680919B0085FFFCCF39
:1013D00090939C0094919923B1F7089510929800EE
:1013E000809399000895982F80919B0085FFFCCFF2
:1013F00090939C000895FC019081992351F03196BF
:1014000080919B0085FFFCCF90939C009081992355
:10141000B1F7089580919B0087FFFCCF80919C00DD
:10142000089580919B0087FD02C080E0089580911F
:101430009C0008951F920F920FB60F920BB60F9259
:1014400011241F932F933F934F935F936F937F9339
:101450008F939F93AF93BF93EF93FF9310919C0053
:10146000812F0E942B321D30D1F080919B0085FF8F
:10147000FCCF10939C00FF91EF91BF91AF919F9192
:101480008F917F916F915F914F913F912F911F911C
:101490000F900BBE0F900FBE0F901F90189580916C
:1014A0009B0085FFFCCF8AE080939C00DECF02C0CA
:1014B000000081508823E1F70895EF92FF920F9387
:1014C0001F93CF93DF93DC01062F10E047E050E03D
:1014D00061E070E0C801042E02C0959587950A94DA
:1014E000E2F780FF2EC11296ED91FC9113972081B7
:1014F000CB0116960C90169702C0880F991F0A947C
:10150000E2F7282B2083000000000000000000000C
:101510001996ED91FC911A9720811D968C911D973B
:101520007B0102C0EE0CFF1C8A95E2F72E29208376
:101530001796ED91FC91189720811D968C911D971F
:10154000EB0102C0CC0FDD1F8A95E2F7CE0180953A
:10155000822380831B96ED91FC911C9780811D96C0
:101560002C911D9790E002C0959587952A95E2F7FA
:1015700080FFF4CF1796ED91FC91189720811D966E
:101580008C911D97C1E0D0E07B0102C0EE0CFF1CE6
:101590008A95E2F72E292083000000000000000059
:1015A000000000000000000000001996ED91FC9181
:1015B0001A9720811D968C911D977B0102C0EE0C1D
:1015C000FF1C8A95E2F7C7018095822380834150F2
:1015D00050402FEF4F3F520709F07CCF1296ED910C
:1015E000FC9113972081CE0116960C90169702C09D
:1015F000880F991F0A94E2F7809582238083ED91EA
:10160000FC9111972081CE0116960C90169702C07E
:10161000880F991F0A94E2F7809582238083000047
:10162000000000000000000000000000000019960B
:10163000ED91FC911A9720811D968C911D97AE011A
:1016400002C0440F551F8A95E2F7242B208317967A
:10165000ED91FC91189790811D968C911D9702C079
:10166000CC0FDD1F8A95E2F7BE016095862F892396
:1016700080831B96ED91FC911C9780811D962C9187
:101680001D9790E002C0959587952A95E2F780FF17
:10169000F4CF1796ED91FC91189720811D968C91AF
:1016A0001D9741E050E0EA0102C0CC0FDD1F8A9592
:1016B000E2F72C2B20831496ED91FC911597308145
:1016C00016966C91169700000000000000000000C4
:1016D00000000000000000001996ED91FC911A979F
:1016E00020811D968C911D977A0102C0EE0CFF1C83
:1016F0008A95E2F7C701809582238083ED91FC9162
:1017000011972081CA0116960C9002C0880F991F6C
:101710000A94E2F7282B208300000000000000005C
:10172000000080E002C0440F551F6A95E2F73423A1
:1017300009F481E0DF91CF911F910F91FF90EF901D
:1017400008951296ED91FC9113972081CB01169686
:101750000C90169702C0880F991F0A94E2F78095A3
:1017600082238083D0CE0F931F93CF93DF93DC012E
:10177000062F1296ED91FC911397408181E090E045
:101780009C0116960C90169702C0220F331F0A94E4
:10179000E2F7422B4083ED91FC9111972081169640
:1017A0000C90169702C0880F991F0A94E2F7809553
:1017B0008223808310E037E061E070E000000000E9
:1017C000000000000000000000000000000019966A
:1017D000ED91FC911A9720811D968C911D97AB017C
:1017E00002C0440F551F8A95E2F7242B20831796D9
:1017F000ED91FC91189720811D968C911D97EB011E
:1018000002C0CC0FDD1F8A95E2F7CE0180958223BE
:1018100080831B96ED91FC911C9780811D962C91E5
:101820001D9790E002C0959587952A95E2F780FF75
:10183000F4CF1796ED91FC91189720811D968C910D
:101840001D97AB0102C0440F551F8A95E2F7242B68
:1018500020831496ED91FC9115972081110FCB01F7
:1018600016960C90169702C0880F991F0A94E2F7FB
:10187000282309F0116000000000000000000000B3
:1018800000000000000000001996ED91FC911A97ED
:1018900020811D968C911D9741E050E0EB0102C024
:1018A000CC0FDD1F8A95E2F7CE01809582238083DD
:1018B000315008F083CFED91FC9111972081CA013E
:1018C00016960C90169702C0880F991F0A94E2F79B
:1018D000282B2083002309F487C01296ED91FC91F8
:1018E0001397808116960C90169702C0440F551FCF
:1018F0000A94E2F7842B80830000000000000000BF
:1019000000001996ED91FC911A9740811D962C913B
:101910001D9781E090E0BC0102C0660F771F2A95F9
:10192000E2F7462B40831796ED91FC911897308192
:101930001D962C911D9702C0880F991F2A95E2F7DA
:101940008095832380831B96ED91FC911C97808169
:101950001D962C911D9790E002C0959587952A952C
:10196000E2F780FFF4CF1796ED91FC911897208154
:101970001D968C911D9741E050E0EA0102C0CC0F0A
:10198000DD1F8A95E2F72C2B208300000000000069
:101990000000000000000000000000001996ED911A
:1019A000FC911A9720811D968C911D97BA0102C057
:1019B000660F771F8A95E2F7CB018095822380839B
:1019C0001296ED91FC911397808116960C9002C0AF
:1019D000440F551F0A94E2F7842B8083812FDF91F7
:1019E000CF911F910F9108951296ED91FC9113974D
:1019F000908116960C90169702C0440F551F0A94BA
:101A0000E2F7842F80958923808376CF94E3899FA2
:101A100090011124205E394FC9010895DC0122E0B4
:101A20001D962C931D9784E690E018969C938E93B8
:101A3000179783E690E01C969C938E931B9785E600
:101A400090E01A969C938E93199716962C9316975E
:101A50008AE390E011969C938E9389E390E015962B
:101A60009C938E9314978BE390E013969C938E93A4
:101A7000129741E050E0D29A1796ED91FC91189799
:101A800020811D968C911D97BA0102C0660F771FA9
:101A90008A95E2F7262B20831296ED91FC911397FD
:101AA0002081CA0116960C90169702C0880F991FC4
:101AB0000A94E2F7282B20831996ED91FC911A974E
:101AC00020811D968C911D97BA0102C0660F771F69
:101AD0008A95E2F7262B20831796ED91FC911897B3
:101AE00090811D968C911D9702C0440F551F8A95B9
:101AF000E2F74095492340831B96ED91FC911C979A
:101B000080811D962C911D9790E002C09595879538
:101B10002A95E2F780FFF4CF1796ED91FC91189784
:101B200020811D963C911D9781E090E002C0880FB6
:101B3000991F3A95E2F7282B2083D3961C9208959B
:101B4000DC0181E01D968C931D974AE350E01896C6
:101B50005C934E93179729E330E01C963C932E93A9
:101B60001B978BE390E01A969C938E931997169689
:101B70001C92169711965C934E9315963C932E9358
:101B8000149713969C938E93129741E050E0D09A4D
:101B90001796ED91FC91189720811D968C911D97B9
:101BA000BA0102C0660F771F8A95E2F7262B2083C1
:101BB0001296ED91FC9113972081CA0116960C9014
:101BC000169702C0880F991F0A94E2F7282B2083EA
:101BD0001996ED91FC911A9720811D968C911D9775
:101BE000BA0102C0660F771F8A95E2F7262B208381
:101BF0001796ED91FC91189790811D968C911D97E9
:101C000002C0440F551F8A95E2F74095492340834F
:101C10001B96ED91FC911C9780811D962C911D9730
:101C200090E002C0959587952A95E2F780FFF4CF62
:101C30001796ED91FC91189720811D963C911D9768
:101C400081E090E002C0880F991F3A95E2F7282BB7
:101C50002083D3961C920895DC0182E01D968C931C
:101C60001D9764E370E018967C936E93179743E397
:101C700050E01C965C934E931B9725E330E01A9638
:101C80003C932E93199783E016968C931697119692
:101C90007C936E9315965C934E93149713963C9396
:101CA0002E93129741E050E0A39A1796ED91FC9184
:101CB000189720811D968C911D97BA0102C0660F5E
:101CC000771F8A95E2F7262B20831296ED91FC91DF
:101CD00013972081CA0116960C90169702C0880FA0
:101CE000991F0A94E2F7282B20831996ED91FC9115
:101CF0001A9720811D968C911D97BA0102C0660F1C
:101D0000771F8A95E2F7262B20831796ED91FC9199
:101D1000189790811D968C911D9702C0440F551FF6
:101D20008A95E2F74095492340831B96ED91FC91FB
:101D30001C9780811D962C911D9790E002C095956F
:101D400087952A95E2F780FFF4CF1796ED91FC91E5
:101D5000189720811D963C911D9781E090E002C06C
:101D6000880F991F3A95E2F7282B2083D3961C926F
:101D70000895BF92CF92DF92EF92FF920F931F933D
:101D8000CF93DF93EC01E881F981408121E030E0DD
:101D9000C9010E8002C0880F991F0A94E2F780954E
:101DA00084238083EF81F88590818D8502C0220F86
:101DB000331F8A95E2F72095292320831092820809
:101DC00010928108109280081BAA10E237E0E32EDF
:101DD00002E024E0D22E93E0F92ECC24C39488E0D4
:101DE000B82E88B3812788BB9BA99330B1F194307A
:101DF000D8F4913009F4E0C0923008F48CC099B363
:101E000094709093E30780916300847080935908E5
:101E1000882309F403C1992321F380918108882341
:101E200001F7C498DBAADDCF973009F4AFC0983032
:101E300008F468C0983009F49CC0993009F065C076
:101E400089E291E00E94DD09109298081BAA88B3EC
:101E5000812788BB9BA9933051F68091630082FF54
:101E6000C0CF89B384708093810890918208990FC4
:101E700090938208882319F0916090938208809152
:101E800080088F5F80938008883008F4C9C00BAB4E
:101E900080917E0890918208E82FF0E0E658F74F95
:101EA00094AB8F5F80937E08882309F4BBC01092A7
:101EB00098088091630082FF08C090E09F5F809146
:101EC000630082FDFBCF90939808D29ADA98109223
:101ED00098088091630082FFFCCF1092980880914F
:101EE000630082FF08C090E09F5F8091630082FDE5
:101EF000FBCF90939808D298DA9A109282081092A9
:101F000080086FCF943009F450C088E191E00E94BE
:101F1000DD091BAA66CFCA9B64CF8091630082FF54
:101F200060CF8091940890919508A0919608B09107
:101F300097080196A11DB11D809394089093950870
:101F4000A0939608B09397084097A105B10508F4AF
:101F500048CF109282081092800810927E08CBAA77
:101F60001092940810929508109296081092970873
:101F700038CF20E030E0C901DF91CF911F910F9160
:101F8000FF90EF90DF90CF90BF90089586E391E0AF
:101F90000E94DD09109294081092950810929608FC
:101FA0001092970820E030E0E6CF80E291E00E94B6
:101FB000DD092AE738E0DFCF8091630082FF28C087
:101FC000CA990DC00BAB90938C08C49A10929408D8
:101FD00010929508109296081092970802CF80915F
:101FE000940890919508A0919608B0919708019651
:101FF000A11DB11D8093940890939508A093960815
:10200000B09397088150944CA940B04008F0EBAAD7
:102010008091630082FDE5CE1BAA19CFFBAAE1CE19
:102020000BABDFCE903209F442CF8EE391E00E94F9
:10203000DD09BBAA3CCF82E080932D0664E370E00B
:10204000709328066093270643E350E050932C06D4
:1020500040932B0625E330E030932A06209329068F
:1020600083E08093260670932106609320065093A8
:102070002506409324063093230620932206A39A34
:1020800044B380912D0621E030E0B90102C0660F13
:10209000771F8A95E2F7462B44BBAB9A45B38091F4
:1020A0002D06B90102C0660F771F8A95E2F7462B0D
:1020B00045BB94B380912D0602C0220F331F8A9531
:1020C000E2F72095292324BB83B320912D0690E0CD
:1020D00002C0959587952A95E2F780FFF5CF24B346
:1020E00080912D0641E050E0BA0102C0660F771FD3
:1020F0008A95E2F7262B24BB1092530622E0209308
:10210000610684E690E090935C0680935B0683E62C
:1021100090E09093600680935F0685E690E0909350
:102120005E0680935D0620935A068AE390E09093C2
:1021300055068093540689E390E090935906809366
:1021400058068BE390E09093570680935606D29AF8
:102150002091640080916106BA0102C0660F771F6A
:102160008A95E2F7262B20936400DA9A2091650085
:1021700080916106BA0102C0660F771F8A95E2F767
:10218000262B20936500909164008091610602C027
:10219000440F551F8A95E2F7409549234093640008
:1021A000809163002091610690E002C0959587952B
:1021B0002A95E2F780FFF4CF2091640080916106B8
:1021C00041E050E0BA0102C0660F771F8A95E2F73E
:1021D000262B209364001092870681E08093950659
:1021E0006AE370E07093900660938F0629E330E015
:1021F00030939406209393068BE390E0909392069D
:102200008093910610928E067093890660938806DB
:1022100030938D0620938C0690938B0680938A06CC
:10222000D09A2AB380919506BA0102C0660F771F33
:102230008A95E2F7262B2ABBD89A2BB38091950674
:10224000BA0102C0660F771F8A95E2F7262B2BBBD7
:102250009AB38091950602C0440F551F8A95E2F704
:10226000409549234ABB89B32091950690E002C06E
:10227000959587952A95E2F780FFF5CF8AB39091DF
:10228000950621E030E002C0220F331F9A95E2F755
:10229000822B8ABB1092BB0608958F929F92AF92B9
:1022A000BF92CF92DF92EF92FF920F931F93CF9343
:1022B000DF93EC01C42E5901862E992400D000D062
:1022C00000D0EDB7FEB7319689E792E0ADB7BEB763
:1022D00012969C938E9311979382828244831582E7
:1022E0000E946736EDB7FEB736960FB6F894FEBF7C
:1022F0000FBEEDBFCC2001F1DA2C85014CE9E42EB4
:1023000042E0F42E00D000D0EDB7FEB73196ADB765
:10231000BEB71296FC92EE921197D8018D918D0165
:10232000828313820E946736802F8D190F900F9041
:102330000F900F908C1530F300D085EA92E0EDB746
:10234000FEB7928381830E946736E881F9814081DC
:1023500021E030E0C9010E8002C0880F991F0A9465
:10236000E2F7482B4083EF81F88540818D85790124
:1023700002C0EE0CFF1C8A95E2F74E294083E985E6
:10238000FA8540818D85890102C0000F111F8A9551
:10239000E2F7402B4083EF81F88590818D8502C064
:1023A000220F331F8A95E2F7209529232083EB859E
:1023B000FC850F900F9080812D8590E002C095954F
:1023C00087952A95E2F780FFF6CFEF81F885208187
:1023D0008D8541E050E0BA0102C0660F771F8A95F3
:1023E000E2F7262B2083EA81FB812081CA010E803F
:1023F00002C0880F991F0A94E2F7282B208300005F
:102400000000000000000000EA81FB812081CA0179
:102410000E8002C0880F991F0A94E2F780958223EC
:10242000808300000000000000000000E985FA85BC
:1024300090818D8502C0440F551F8A95E2F7409523
:102440004923408347E050E061E070E0C401042E7E
:1024500002C0959587950A94E2F780FF69C1EA81E9
:10246000FB812081CB010E8002C0880F991F0A9446
:10247000E2F7282B2083000000000000000000008D
:10248000E985FA8520818D85DB0102C0AA0FBB1F7B
:102490008A95E2F72A2B2083EF81F88520818D85AC
:1024A0007B0102C0EE0CFF1C8A95E2F7C701809504
:1024B00082238083EB85FC8580812D8590E002C09E
:1024C000959587952A95E2F780FFF6CFEF81F885FD
:1024D00020818D85A1E0B0E08B0102C0000F111FAB
:1024E0008A95E2F7202B2083000000000000000006
:1024F00000000000000000000000E985FA8520814E
:102500008D857B0102C0EE0CFF1C8A95E2F7C701A6
:10251000809582238083415050400FEF4F3F5007FA
:1025200009F094CFEA81FB812081CD010E8002C0A9
:10253000880F991F0A94E2F7809582238083E881AF
:10254000F9812081CD010E8002C0880F991F0A9465
:10255000E2F78095822380830000000000000000E5
:102560000000000000000000E985FA8520818D85CB
:10257000AD0102C0440F551F8A95E2F7242B20833A
:10258000EF81F88590818D8502C0AA0FBB1F8A95C7
:10259000E2F78A2F809589238083EB85FC858081F3
:1025A0002D8590E002C0959587952A95E2F780FFEA
:1025B000F6CFEF81F88520818D8561E070E0DB0149
:1025C00002C0AA0FBB1F8A95E2F72A2B2083EC8159
:1025D000FD8130814E8100000000000000000000FD
:1025E0000000000000000000E985FA8520818D854B
:1025F0007B0102C0EE0CFF1C8A95E2F7C7018095B3
:1026000082238083E881F9812081CB010E8002C082
:10261000880F991F0A94E2F7282B208300000000FE
:102620000000000000008B0102C0000F111F4A953E
:10263000E2F7302309F48AC0EA81FB812081CB01D3
:102640000E8002C0880F991F0A94E2F780958223BA
:102650008083000000000000000000000000000077
:1026600000000000E985FA8520818D85AB0102C05C
:10267000440F551F8A95E2F7242B2083EF81F885BC
:1026800090818D8502C0660F771F8A95E2F7862FAD
:10269000809589238083EB85FC8580812D8590E062
:1026A00002C0959587952A95E2F780FFF6CFEF81D6
:1026B000F88520818D8541E050E0BA0102C0660FA7
:1026C000771F8A95E2F7262B208300000000000088
:1026D00000000000EA81FB8180810E8002C0440F6F
:1026E000551F0A94E2F7842B808300D000D088EA3B
:1026F00092E0ADB7BEB712969C938E931197149645
:102700009C928E9213970E946736FF240F900F9031
:102710000F900F908F2DDF91CF911F910F91FF9010
:10272000EF90DF90CF90BF90AF909F908F900895E3
:10273000EA81FB812081CB010E8002C0880F991FA6
:102740000A94E2F780958223808395CEFF24F39448
:1027500061E070E001E010E0CC2009F405C1F50172
:102760008081A82FB0E047E050E0CD01042E02C0E8
:10277000959587950A94E2F780FF51C1EA81FB8124
:102780002081CB010E8002C0880F991F0A94E2F7C6
:10279000282B208300000000000000000000E985D5
:1027A000FA8520818D857B0102C0EE0CFF1C8A9585
:1027B000E2F72E292083EF81F88520818D857B012A
:1027C00002C0EE0CFF1C8A95E2F7C70180958223B8
:1027D0008083EB85FC8580812D8590E002C09595F6
:1027E00087952A95E2F780FFF6CFEF81F885208163
:1027F0008D857B0102C0EE0CFF1C8A95E2F72E2925
:102800002083000000000000000000000000000025
:1028100000000000E985FA8520818D857B0102C0DA
:10282000EE0CFF1C8A95E2F7C70180958223808316
:10283000415050408FEF4F3F580709F096CFEA8143
:10284000FB812081C8010E8002C0880F991F0A9465
:10285000E2F7809582238083E881F9812081C80195
:102860000E8002C0880F991F0A94E2F78095822398
:102870008083000000000000000000000000000055
:102880000000E985FA8520818D85D80102C0AA0F54
:10289000BB1F8A95E2F72A2B2083EF81F8852081E0
:1028A0008D85780102C0EE0CFF1C8A95E2F7C70106
:1028B000809582238083EB85FC8580812D8590E047
:1028C00002C0959587952A95E2F780FFF6CFEF81B4
:1028D000F88520818D85AB0102C0440F551F8A9574
:1028E000E2F7242B2083EC81FD8130814E810000B2
:1028F00000000000000000000000000000000000D8
:10290000E985FA8520818D85DB0102C0AA0FBB1FF6
:102910008A95E2F7CD01809582238083E881F98151
:102920002081CB010E8002C0880F991F0A94E2F724
:10293000282B208300000000000000000000FF247E
:10294000FB0102C0EE0FFF1F4A95E2F73E2311F490
:10295000FF24F394CA94FF2009F46FC00894A11CCB
:10296000B11CCC2009F0FBCEEA81FB81408121E043
:1029700030E0C9010E8002C0880F991F0A94E2F767
:102980008095842380830000000000000000000088
:102990000000000000000000E985FA8540818D8577
:1029A000890102C0000F111F8A95E2F7402B408376
:1029B000EF81F88590818D8502C0220F331F8A95A3
:1029C000E2F7209529232083EB85FC8580812D85E6
:1029D00090E002C0959587952A95E2F780FFF6CFA3
:1029E000EF81F88520818D8541E050E0BA0102C079
:1029F000660F771F8A95E2F7262B208300000000E0
:102A0000000000000000EA81FB8180810E8002C08E
:102A1000440F551F0A94E2F7842B80837BCEEA8112
:102A2000FB812081CB010E8002C0880F991F0A9480
:102A3000E2F7809582238083ADCEEA81FB814081DD
:102A400021E030E0C9010E8002C0880F991F0A946E
:102A5000E2F78095842380830000000000000000DE
:102A600000000000000000000000E985FA854081B8
:102A70008D85890102C0000F111F8A95E2F7402B56
:102A80004083EF81F88590818D8502C0220F331F2E
:102A90008A95E2F7209529232083EB85FC858081A8
:102AA0002D8590E002C0959587952A95E2F780FFE5
:102AB000F6CFEF81F88520818D8541E050E0BA01A5
:102AC00002C0660F771F8A95E2F7262B208300004D
:102AD0000000000000000000EA81FB8180810E8080
:102AE00002C0440F551F0A94E2F7842B808300D064
:102AF00000D085EC92E0ADB7BEB712969C938E9352
:102B0000119714969C928E9213970E9467360F909D
:102B10000F900F900F90FECDCF93DF93EC01FC014F
:102B2000EC5AFF4F9C012B5A3F4F8F89988D608143
:102B30004D810E944D11882341F0CE0163E070E089
:102B40000E94172EDF91CF9108958A8D9B8DAC8DB9
:102B5000BD8D0196A11DB11D8A8F9B8FAC8FBD8F3E
:102B6000CE0165E070E00E94172EDF91CF910895AD
:102B70008F929F92AF92BF92CF92DF92EF92FF928D
:102B80000F931F93CF93DF93EC01F62EE22EA32E2B
:102B9000C42EDD2400D000D000D0EDB7FEB73196B2
:102BA00085EE92E0ADB7BEB712969C938E931197C7
:102BB00062831382D582C4820E946736E881F981DC
:102BC000408121E030E0C9010E8002C0880F991FCA
:102BD0000A94E2F7482B4083EF81F88540818D8588
:102BE000490102C0880C991C8A95E2F74829408364
:102BF000E985FA8540818D85B90102C0660F771F8E
:102C00008A95E2F7462B4083EF81F88590818D8588
:102C100002C0220F331F8A95E2F7209529232083D3
:102C2000EB85FC858DB79EB706960FB6F8949EBFD0
:102C30000FBE8DBF80812D8590E002C09595879550
:102C40002A95E2F780FFF6CFEF81F88520818D8508
:102C500041E050E0DA0102C0AA0FBB1F8A95E2F7FB
:102C60002A2B2083EA81FB812081CA010E8002C0C9
:102C7000880F991F0A94E2F7282B20830000000098
:102C8000000000000000EA81FB812081CA010E8063
:102C900002C0880F991F0A94E2F7809582238083EF
:102CA00000000000000000000000E985FA85908126
:102CB0008D8502C0440F551F8A95E2F74095492340
:102CC00040838F2D8160082F10E047E050E061E0E5
:102CD00070E0C801042E02C0959587950A94E2F72A
:102CE00080FF01C2EA81FB812081CB010E8002C0FE
:102CF000880F991F0A94E2F7282B20830000000018
:102D0000000000000000E985FA8520818D854B01D7
:102D100002C0880C991C8A95E2F728292083EF814C
:102D2000F88520818D85DB0102C0AA0FBB1F8A9523
:102D3000E2F7CD01809582238083EB85FC8580813D
:102D40002D8590E002C0959587952A95E2F780FF42
:102D5000F6CFEF81F88520818D85A1E0B0E04B01B1
:102D600002C0880C991C8A95E2F72829208300006C
:102D70000000000000000000000000000000000053
:102D8000E985FA8520818D854B0102C0880C991C4C
:102D90008A95E2F7C4018095822380834150504098
:102DA0008FEF4F3F580709F094CFEA81FB812081D4
:102DB000CD010E8002C0880F991F0A94E2F780951A
:102DC00082238083E881F9812081CD010E8002C0B9
:102DD000880F991F0A94E2F7809582238083000070
:102DE0000000000000000000000000000000E98575
:102DF000FA8520818D854D0102C0880C991C8A9529
:102E0000E2F728292083EF81F88590818D8502C023
:102E1000AA0FBB1F8A95E2F78A2F809589238083AA
:102E2000EB85FC8580812D8590E002C09595879586
:102E30002A95E2F780FFF6CFEF81F88520818D8516
:102E400061E070E0AB0102C0440F551F8A95E2F7C4
:102E5000242B2083EC81FD8130814E810000000015
:102E60000000000000000000000000000000E985F4
:102E7000FA8520818D85DB0102C0AA0FBB1F8A95D0
:102E8000E2F7CD01809582238083E881F98120815A
:102E9000CB010E8002C0880F991F0A94E2F7282BFD
:102EA000208300000000000000000000BB244B0154
:102EB00002C0880C991C4A95E2F7382109F02FC10D
:102EC000BB24B394C114D10409F4A5C18E2D9A2D4D
:102ED000DC0161E070E001E010E07D01EC0CFD1C24
:102EE0000894E108F1080894C108D108CA0EDB1E55
:102EF000EA81FB812081CB010E8002C0880F991FDF
:102F00000A94E2F7282B2083E881F9812081CB0104
:102F10000E8002C0880F991F0A94E2F780958223E1
:102F2000808350E037E00000000000000000000057
:102F30000000000000000000E985FA8520818D85F1
:102F40004B0102C0880C991C8A95E2F7282920833E
:102F5000EF81F88520818D854B0102C0880C991C7A
:102F60008A95E2F7C401809582238083EB85FC85F6
:102F700080812D8590E002C0959587952A95E2F78E
:102F800080FFF6CFEF81F88520818D854B0102C04F
:102F9000880C991C8A95E2F728292083EC81FD8111
:102FA0002081550FCB010E8002C0880F991F0A9413
:102FB000E2F7282309F05160000000000000000043
:102FC00000000000000000000000E985FA85208173
:102FD0008D854B0102C0880C991C8A95E2F7C401CB
:102FE000809582238083315008F09DCFE881F9815C
:102FF0002081C8010E8002C0880F991F0A94E2F751
:10300000282B2083AE15BF0509F07BC0EA81FB8128
:103010002081C8010E8002C0880F991F0A94E2F730
:10302000282B208300000000000000000000E9853C
:10303000FA8520818D854B0102C0880C991C8A95E8
:10304000E2F728292083EF81F88520818D854B01C7
:1030500002C0880C991C8A95E2F7C40180958223EE
:103060008083EB85FC8580812D8590E002C095955D
:1030700087952A95E2F780FFF6CFEF81F8852081CA
:103080008D854B0102C0880C991C8A95E2F728298E
:10309000208300000000000000000000000000008D
:1030A00000000000E985FA8520818D854B0102C072
:1030B000880C991C8A95E2F7C4018095822380834D
:1030C000EA81FB812081CB010E8002C0880F991F0D
:1030D0000A94E2F7282B20835C93AC15BD0509F414
:1030E0009AC0119605CFEA81FB812081CB010E8029
:1030F00002C0880F991F0A94E2F78095822380838B
:10310000FDCDEA81FB812081C8010E8002C0880FBD
:10311000991F0A94E2F780958223808383CFEA8106
:10312000FB812081CB010E8002C0880F991F0A9479
:10313000E2F78095822380830000000000000000F9
:1031400000000000000000000000E985FA852081F1
:103150008D85AB0102C0440F551F8A95E2F7242BE1
:103160002083EF81F88590818D8502C0660F771FDF
:103170008A95E2F7862F809589238083EB85FC85ED
:1031800080812D8590E002C0959587952A95E2F77C
:1031900080FFF6CFEF81F88520818D8541E050E0FA
:1031A000BA0102C0660F771F8A95E2F7262B2083AB
:1031B00000000000000000000000EA81FB81808127
:1031C0000E8002C0440F551F0A94E2F7842B8083BF
:1031D00000D000D0EDB7FEB7319688EA92E0ADB7E7
:1031E000BEB712969C938E931197F28213820E941F
:1031F00067360F900F900F900F908B2DDF91CF912E
:103200001F910F91FF90EF90DF90CF90BF90AF9004
:103210009F908F900895EA81FB81408121E030E00A
:10322000C9010E8002C0880F991F0A94E2F78095A9
:1032300084238083000000000000000000000000E4
:10324000000000000000E985FA8540818D85B90104
:1032500002C0660F771F8A95E2F7462B4083EF8105
:10326000F88590818D8502C0220F331F8A95E2F781
:10327000209529232083EB85FC8580812D8590E096
:1032800002C0959587952A95E2F780FFF6CFEF81EA
:10329000F88520818D8541E050E0DA0102C0AA0F57
:1032A000BB1F8A95E2F72A2B208300000000000054
:1032B00000000000EA81FB8180810E8002C0440F83
:1032C000551F0A94E2F7842B808397CFEF92FF92E9
:1032D0001F93CF93DF93EC019C012C5C3F4F8F89B0
:1032E000988D6F854A810E94B815882309F44BC0D8
:1032F00000D088E193E0EDB7FEB7928381830E940E
:1033000067360F900F908A819B81892B31F110E0F5
:103310005CE9E52E52E0F52EA0E0B0E000D000D050
:103320002DB73EB72F5F3F4FEDB7FEB7F282E18278
:10333000AC0FBD1FD4968C91F901828313820E9439
:1033400067361F5FA12FB0E00F900F900F900F9086
:103350008A819B81A817B90708F300D085EA92E01B
:10336000EDB7FEB7928381830E9467360F900F906E
:10337000CE0163E070E00E94172EDF91CF911F9184
:10338000FF90EF90089500D08AE093E0EDB7FEB78C
:10339000928381830E9467368A8D9B8DAC8DBD8D13
:1033A0000196A11DB11D8A8F9B8FAC8FBD8F0F9091
:1033B0000F90CE0168E070E00E94172EDF91CF9150
:1033C0001F91FF90EF9008956F927F928F929F923E
:1033D000AF92BF92CF92DF92EF92FF920F931F9323
:1033E000CF93DF93DC01962EB42E6901802E1996BF
:1033F000ED91FC911A9740811D962C911D9781E0CB
:1034000090E03C0102C0660C771C2A95E2F7462941
:1034100040831796ED91FC91189730811D962C9161
:103420001D9702C0880F991F2A95E2F78095832384
:1034300080831B96ED91FC911C9780811D962C91A9
:103440001D9790E002C0959587952A95E2F780FF39
:10345000F4CF1796ED91FC91189720811D968C91D1
:103460001D9741E050E08A0102C0000F111F8A95AC
:10347000E2F7202B20831296ED91FC911397208187
:10348000CA0116960C90169702C0880F991F0A94CD
:10349000E2F7282B2083000000000000000000005D
:1034A0001296ED91FC9113972081CA0116960C900B
:1034B000169702C0880F991F0A94E2F7809582231D
:1034C0008083000000000000000000001996ED91CC
:1034D000FC911A9790811D968C911D9702C0440F04
:1034E000551F8A95E2F7409549234083892D8E7FA9
:1034F000082F10E047E050E0C1E0D0E0C801042E02
:1035000002C0959587950A94E2F780FFB2C512969E
:10351000ED91FC9113972081CE0116960C90169791
:1035200002C0880F991F0A94E2F7282B208300001D
:1035300000000000000000001996ED91FC911A9720
:1035400020811D968C911D97BE0102C0660F771FCA
:103550008A95E2F7262B20831796ED91FC91189718
:1035600020811D968C911D973E0102C0660C771C30
:103570008A95E2F7C3018095822380831B96ED91A3
:10358000FC911C9780811D962C911D9790E002C0A4
:10359000959587952A95E2F780FFF4CF1796ED91E0
:1035A000FC91189720811D968C911D9761E070E029
:1035B0003E0102C0660C771C8A95E2F7262920831B
:1035C00000000000000000000000000000000000FB
:1035D00000001996ED91FC911A9720811D968C910F
:1035E0001D973E0102C0660C771C8A95E2F7C30165
:1035F000809582238083415050402FEF4F3F5207E8
:1036000009F07CCF1296ED91FC9113972081CB01AC
:1036100016960C90169702C0880F991F0A94E2F72D
:10362000809582238083ED91FC9111972081CB01BD
:1036300016960C90169702C0880F991F0A94E2F70D
:1036400080958223808300000000000000000000BD
:103650000000000000001996ED91FC911A9720815E
:103660001D968C911D97AB0102C0440F551F8A9582
:10367000E2F7242B20831796ED91FC911897908107
:103680001D968C911D9702C0660F771F8A95E2F7F1
:10369000862F8095892380831B96ED91FC911C9742
:1036A00080811D962C911D9790E002C0959587957D
:1036B0002A95E2F780FFF4CF1796ED91FC911897C9
:1036C00020811D968C911D97C1E0D0E0BE0102C003
:1036D000660F771F8A95E2F7262B20831496ED91CB
:1036E000FC911597308116964C91169700000000BA
:1036F000000000000000000000000000000019961B
:10370000ED91FC911A9720811D968C911D973E0199
:1037100002C0660C771C8A95E2F7C301809582236C
:103720008083ED91FC9111972081CE0116960C902B
:10373000169702C0880F991F0A94E2F7282B20835E
:1037400000000000000000000000AA248E0102C05A
:10375000000F111F4A95E2F7302309F030C5AA2463
:10376000A39461E070E001E010E0BB2009F42DC1FA
:10377000F6018081C82FD0E047E050E0CE01042E52
:1037800002C0959587950A94E2F780FF60C412966F
:10379000ED91FC9113972081CB0116960C90169712
:1037A00002C0880F991F0A94E2F7282B208300009B
:1037B00000000000000000001996ED91FC911A979E
:1037C00020811D968C911D973B0102C0660C771CD1
:1037D0008A95E2F7262920831796ED91FC91189798
:1037E00020811D968C911D973B0102C0660C771CB1
:1037F0008A95E2F7C3018095822380831B96ED9121
:10380000FC911C9780811D962C911D9790E002C021
:10381000959587952A95E2F780FFF4CF1796ED915D
:10382000FC91189720811D968C911D973B0102C039
:10383000660C771C8A95E2F7262920830000000099
:1038400000000000000000000000000000001996C9
:10385000ED91FC911A9720811D968C911D973B014B
:1038600002C0660C771C8A95E2F7C301809582231B
:103870008083415050402FEF4F3F520709F07ECFD9
:103880001296ED91FC9113972081C80116960C9029
:10389000169702C0880F991F0A94E2F78095822339
:1038A0008083ED91FC9111972081C80116960C90B0
:1038B000169702C0880F991F0A94E2F78095822319
:1038C00080830000000000000000000000000000F5
:1038D00000001996ED91FC911A9720811D968C910C
:1038E0001D97A80102C0440F551F8A95E2F7242BAB
:1038F00020831796ED91FC91189720811D968C914D
:103900001D97380102C0660C771C8A95E2F7C30147
:103910008095822380831B96ED91FC911C9780817A
:103920001D962C911D9790E002C0959587952A953C
:10393000E2F780FFF4CF1796ED91FC911897208164
:103940001D968C911D97AB0102C0440F551F8A959F
:10395000E2F7242B20831496ED91FC911597E081DA
:103960000000000000000000000000000000000057
:1039700000001996ED91FC911A9720811D968C916B
:103980001D973B0102C0660C771C8A95E2F7C301C4
:10399000809582238083ED91FC9111972081CB014A
:1039A00016960C90169702C0880F991F0A94E2F79A
:1039B000282B208300000000000000000000089475
:1039C000C11CD11CBA9409F0D3CE00000000000045
:1039D0000000000000000000000000001996ED91BA
:1039E000FC911A9740811D962C911D9781E090E0E3
:1039F0008C0102C0000F111F2A95E2F7402B408373
:103A00001796ED91FC91189730811D962C911D977A
:103A100002C0880F991F2A95E2F78095832380833F
:103A20001B96ED91FC911C9780811D962C911D9702
:103A300090E002C0959587952A95E2F780FFF4CF34
:103A40001796ED91FC91189740811D968C911D97CA
:103A500021E030E0B90102C0660F771F8A95E2F7D6
:103A6000462B40831996ED91FC911A9740811D9643
:103A70008C911D97390102C0660C771C8A95E2F77C
:103A8000462940831796ED91FC91189790811D96D9
:103A90008C911D9702C0220F331F8A95E2F7209563
:103AA000292320831B96ED91FC911C9780811D9604
:103AB0002C911D9790E002C0959587952A95E2F785
:103AC00080FFF4CF1796ED91FC91189720811D96F9
:103AD0008C911D9741E050E08A0102C0000F111F38
:103AE0008A95E2F7202B20831296ED91FC91139793
:103AF0002081CA0116960C90169702C0880F991F54
:103B00000A94E2F7282B2083000000000000000048
:103B100000001296ED91FC9113972081CA01169630
:103B20000C90169702C0880F991F0A94E2F78095AF
:103B3000822380830000000000000000000019962E
:103B4000ED91FC911A9790811D968C911D9702C062
:103B5000440F551F8A95E2F740954923408311E0B1
:103B6000912AC92CDD2447E050E0C1E0D0E0C60135
:103B7000042E02C0959587950A94E2F780FF0DC345
:103B80001296ED91FC9113972081CE0116960C9020
:103B9000169702C0880F991F0A94E2F7282B2083FA
:103BA000000000000000000000001996ED91FC915B
:103BB0001A9720811D968C911D97BE0102C0660F39
:103BC000771F8A95E2F7262B20831796ED91FC91BB
:103BD000189720811D968C911D973E0102C0660C9E
:103BE000771C8A95E2F7C3018095822380831B9618
:103BF000ED91FC911C9780811D962C911D9790E072
:103C000002C0959587952A95E2F780FFF4CF179625
:103C1000ED91FC91189720811D968C911D9761E084
:103C200070E08E0102C0000F111F8A95E2F7202B71
:103C300020830000000000000000000000000000E1
:103C4000000000001996ED91FC911A9720811D96B5
:103C50008C911D973E0102C0660C771C8A95E2F795
:103C6000C301809582238083415050400FEF4F3F26
:103C7000500709F07CCF1296ED91FC9113972081AB
:103C8000CB0116960C90169702C0880F991F0A94C4
:103C9000E2F7809582238083ED91FC91119720813A
:103CA000CB0116960C90169702C0880F991F0A94A4
:103CB000E2F780958223808300000000000000006E
:103CC00000000000000000001996ED91FC911A9789
:103CD00020811D968C911D97AB0102C0440F551F8A
:103CE0008A95E2F7242B20831796ED91FC91189783
:103CF00090811D968C911D9702C0660F771F8A9543
:103D0000E2F7862F8095892380831B96ED91FC91A5
:103D10001C9780811D962C911D9790E002C095956F
:103D200087952A95E2F780FFF4CF1796ED91FC91E5
:103D3000189720811D968C911D9741E050E0BA01A3
:103D400002C0660F771F8A95E2F7262B2083149610
:103D5000ED91FC911597E08100000000000000004B
:103D6000000000000000000000001996ED91FC9199
:103D70001A9720811D968C911D973A0102C0660CFE
:103D8000771C8A95E2F7C301809582238083ED91A9
:103D9000FC911197808116960C90169702C0440FE3
:103DA000551F0A94E2F7842B808300000000000076
:103DB00000000000882009F46EC1E701882D90E022
:103DC00041E050E001E010E0E80EF91E0894E1083F
:103DD000F1086C010894C108D108CC0EDD1E1296C2
:103DE000ED91FC9113972081CA0116960C901697BD
:103DF00002C0880F991F0A94E2F7282B2083ED91C7
:103E0000FC9111972081CA0116960C90169702C05A
:103E1000880F991F0A94E2F780958223808360E0DF
:103E200037E000000000000000000000000000007B
:103E3000000000001996ED91FC911A9720811D96C3
:103E40008C911D974A0102C0880C991C8A95E2F753
:103E5000282920831796ED91FC91189720811D96B3
:103E60008C911D973A0102C0660C771C8A95E2F787
:103E7000C3018095822380831B96ED91FC911C9752
:103E800080811D962C911D9790E002C09595879595
:103E90002A95E2F780FFF4CF1796ED91FC911897E1
:103EA00020811D968C911D974A0102C0880C991C97
:103EB0008A95E2F7282920831496ED91FC911597B5
:103EC0002081660FCA0116960C90169702C0880FC3
:103ED000991F0A94E2F7282309F0616000000000AE
:103EE0000000000000000000000000000000199623
:103EF000ED91FC911A9720811D968C911D973A01A6
:103F000002C0660C771C8A95E2F7C3018095822374
:103F10008083315008F085CFED91FC91119720817D
:103F2000C80116960C90169702C0880F991F0A9424
:103F3000E2F7282B2083CE15DF0509F09EC11296EB
:103F4000ED91FC9113972081C80116960C9016975D
:103F500002C0880F991F0A94E2F7282B20830000E3
:103F600000000000000000001996ED91FC911A97E6
:103F700020811D968C911D974A0102C0880C991CC6
:103F80008A95E2F7282920831796ED91FC911897DE
:103F900020811D968C911D973A0102C0660C771CFA
:103FA0008A95E2F7C3018095822380831B96ED9169
:103FB000FC911C9780811D962C911D9790E002C06A
:103FC000959587952A95E2F780FFF4CF1796ED91A6
:103FD000FC91189720811D968C911D974A0102C073
:103FE000880C991C8A95E2F728292083000000009C
:103FF0000000000000000000000000000000199612
:10400000ED91FC911A9720811D968C911D973A0194
:1040100002C0660C771C8A95E2F7C3018095822363
:1040200080831296ED91FC9113972081CA01169618
:104030000C90169702C0880F991F0A94E2F7282B5C
:1040400020836883CC15DD0531F12196C8CE129608
:10405000ED91FC9113972081CB0116960C90169749
:1040600002C0880F991F0A94E2F78095822380830B
:104070009ECB1296ED91FC9113972081CE0116965E
:104080000C90169702C0880F991F0A94E2F780954A
:10409000822380834CCA1296ED91FC911397408144
:1040A00021E030E0C90116960C90169702C0880FE7
:1040B000991F0A94E2F78095842380830000000012
:1040C0000000000000000000000000000000199641
:1040D000ED91FC911A9740811D968C911D97490195
:1040E00002C0880C991C8A95E2F7482940831796EC
:1040F000ED91FC91189790811D968C911D9702C0AF
:10410000220F331F8A95E2F72095292320831B96DF
:10411000ED91FC911C9780811D962C911D9790E04C
:1041200002C0959587952A95E2F780FFF4CF179600
:10413000ED91FC91189720811D968C911D9741E07F
:1041400050E08A0102C0000F111F8A95E2F7C801F2
:10415000282B2083000000000000000000001296C1
:10416000ED91FC911397808116960C9002C0440F3C
:10417000551F0A94E2F7842B80838A2DDF91CF911B
:104180001F910F91FF90EF90DF90CF90BF90AF9075
:104190009F908F907F906F9008951296ED91FC9173
:1041A00013972081CE0116960C90169702C0880FA7
:1041B000991F0A94E2F7809582238083F1CC1296AE
:1041C000ED91FC9113972081CE0116960C901697D5
:1041D00002C0880F991F0A94E2F78095822380839A
:1041E00000000000000000000000000000000000CF
:1041F00000001996ED91FC911A9720811D968C91E3
:104200001D97AE0102C0440F551F8A95E2F7242B7B
:1042100020831796ED91FC91189790811D968C91B3
:104220001D9702C0CC0FDD1F8A95E2F7BE01609595
:10423000862F892380831B96ED91FC911C978081AA
:104240001D962C911D9790E002C0959587952A9513
:10425000E2F780FFF4CF1796ED91FC91189720813B
:104260001D968C911D9741E050E03A0102C0660C0A
:10427000771C8A95E2F7C3016BCF1296ED91FC9102
:1042800013972081C80116960C90169702C0880FCC
:10429000991F0A94E2F780958223808360CE482F8D
:1042A000662361F09C01F90190E08191980F8E2FB7
:1042B000841B8617D0F3892F8195089580E0089597
:1042C000DC018091F006882309F44FC08091F1064B
:1042D000882309F44DC08091F206882309F44BC06D
:1042E0008091F306882309F449C08091F40688235D
:1042F00009F447C08091F506882309F445C08091F0
:10430000F606882309F443C08091F706882309F450
:1043100041C08091F806882309F43FC08091F906D6
:104320008823F1F18091FA068823E9F18091FB0658
:104330008823E1F18091FC068823D9F18091FD0664
:104340008823D1F18091FE068823C9F18091FF0670
:10435000882311F080E008952FE030E0F901E0516A
:10436000F94F81E080832C93089520E030E0F6CF70
:1043700021E030E0F3CF22E030E0F0CF23E030E086
:10438000EDCF24E030E0EACF25E030E0E7CF26E0D3
:1043900030E0E4CF27E030E0E1CF28E030E0DECFCE
:1043A00029E030E0DBCF2AE030E0D8CF2BE030E06E
:1043B000D5CF2CE030E0D2CF2DE030E0CFCF2EE0D3
:1043C00030E0CCCF0F931F938C0185EF92E00E94D9
:1043D000DD09D8011D96ED91FC911E9781EC80833B
:1043E00014961C921E9213971F910F9108950F938C
:1043F0001F938C0185E193E00E94DD09D8011D9691
:10440000ED91FC911E9781EC808314961C921E9274
:1044100013971F910F910895AF92BF92CF92DF92A1
:10442000EF92FF920F931F93CF93DF935C01F62ED1
:1044300086EA91E00E94DD09F501C184D284F6018B
:1044400082898130A9F000E080E090E0602F4F2D5C
:104450000E947528C6010E946E2EDF91CF911F9198
:104460000F91FF90EF90DF90CF90BF90AF900895A5
:10447000F60100AD06950695802FB6010E947F2EAD
:10448000EC01009709F3EF8CF8A0E114F10409F4B2
:1044900071C082E791E00E94DD09F70122A933A9EA
:1044A000C901DC012AA93BA9C901FC0180E20190F4
:1044B0000D928150E1F78C81F7018583C6010E943E
:1044C0006E2ECE010E946E2EF7019289938B848905
:1044D000858B923009F459C0933008F052C0913066
:1044E00009F0BBCFE701CC5ADF4F87010C5C1F4FAF
:1044F000F8012381288391819C7F9C5F898183704F
:10450000892B8983948193708C7F892B8983820F77
:1045100081958A8380E090E00E9458278B83F80180
:1045200094819C7F8C818370892B8C839181937083
:104530008C7F892B8C8385818D83F50143814C5F32
:1045400049F19E012D5F3F4FF90190E08191980F55
:104550008E2F821B8417D0F3892F81958F8FF501C1
:104560008381885FF7018583FE01E80FF11D8F8D40
:10457000808373CFC6010E946E2ECE010E946E2EE4
:104580006CCF9450963008F068CF8AE491E00E9496
:10459000DD0963CF80E0E2CFCF93DF93EC0185EDBF
:1045A00092E00E94DD098F81883009F44EC0893085
:1045B000C8F08A3089F18C3221F186EE91E00E94B8
:1045C000DD0985EF92E00E94DD09ED85FE8581EC35
:1045D00080831C821B8287EC91E00E94DD09DF91C1
:1045E000CF910895843019F1863039F78DE792E044
:1045F0000E94DD0987EC91E00E94DD09DF91CF91F7
:10460000089583EA92E00E94DD0987EC91E00E9420
:10461000DD09DF91CF91089586E092E00E94DD09E7
:1046200087EC91E00E94DD09DF91CF91089585E547
:1046300092E00E94DD09CE010E94F92587EC91E00D
:104640000E94DD09DF91CF91089580E392E00E94FE
:10465000DD0985E193E0B7CFDF92EF92FF920F93F0
:104660001F93CF93DF93EC0144E3E42EF12CE80E8B
:10467000F91E83E394E00E94DD098E010B5D1F4F5C
:10468000DFA7CEA78A898130E1F084E993E00E9418
:10469000DD0985EDD82E8CA580FD3AC0DD2009F41A
:1046A00071C0FCECDF1609F070C083E393E00E9458
:1046B000DD09DF91CF911F910F91FF90EF90DF9077
:1046C000089581E194E00E94DD09D70111966C9173
:1046D000862F8695869580FF2BC097018C8190E070
:1046E000089799A788A7A0E0B0E02A5F3F4F3BABAF
:1046F0002AABF7018181869586958CA711968C91BE
:10470000837009F4D1C091ECD92E8CA580FFC6CF5F
:10471000C8016D2D0E940C2285E793E00E94DD09FF
:10472000DF91CF911F910F91FF90EF90DF9008954F
:104730008DA99CA9890F81959EA99817B9F5D701D4
:104740005C81452F445009F4B1C09E01295C3F4F64
:10475000F90190E08191980F8E2F821B8417D0F37E
:104760009195452F50E0FE01E40FF51F83A98917AD
:1047700009F486C08DEB93E00E94DD091D822CECCC
:10478000D22E89CFC8010E94CC229A899B8B8C891A
:104790008D8B923031F0933088F09450963008F041
:1047A00084CF8DE493E00E94DD097FCF86EE93E015
:1047B0000E94DD091D823CECD32E6DCF913009F0B3
:1047C00074CF8E010C5A1F4FD70113962C9113975B
:1047D000F801208311969C9111979C7F9C5F8181A9
:1047E0008370892B818314969C9193708C7F892B85
:1047F0008183820F8195828380E090E00E94582718
:10480000D80113968C931397F70194819C7F14968B
:104810008C9114978370892B14968C9314979181A3
:1048200093708C7F892B14968C93149785811596A1
:104830008C9315971696DC9248A54C5FC9F19801A8
:104840002D5F3F4FF90190E08191980F8E2F821BD1
:104850008417D0F3892F8195D8015F968C935F9749
:1048600088A5885F8D83F801E80FF11D31975F9669
:104870008C918083CE0165E070E00E94172E15CFE9
:104880009E012C5A3F4F63706DA7E5E0F0E0EE0EFD
:10489000FF1EF9AAE8AA8BEF9FEFE80EF91E47501A
:1048A00050405FA34EA321CFDD24F5CE90E059CF39
:1048B00080E0D2CF089580E090E00895CF93DF9319
:1048C000FC01C585D68582E794E00E94DD098091D0
:1048D000B00A882389F48FEF89839091AF0A93708F
:1048E0008A818C7F892B8A83188281E594E00E94DB
:1048F000DD09DF91CF9108958091AE0A8983EDCFD4
:104900000F931F93CF93DF93FC0113850485C58517
:10491000D68585EB94E00E94DD098091AE0A8F3F39
:10492000B1F0E12FF02F81818093AE0A82818370F4
:104930008093AF0A81E08093B00A188284E994E002
:104940000E94DD09DF91CF911F910F910895109280
:10495000B00AF3CFEF92FF920F931F937C01DC011B
:104960001D960D911C911E9783E995E00E94DD092B
:10497000E0E8FAE08091800A8F70D80111968C935C
:104980008091800A9091810AA091820AB091830A55
:10499000892F9A2FAB2FBB278F70D80112968C933B
:1049A0008091800A9091810AA091820AB091830A35
:1049B000CD01AA27BB278F70D80113968C938091C5
:1049C000800A9091810AA091820AB091830A8B2F6C
:1049D0009927AA27BB278F70D80114968C93149718
:1049E000329780818F7015968C9315978081918175
:1049F000892F990F990B16968C93169780917A0AA6
:104A000090917B0A282F2F7017962C931797892F38
:104A1000990F990B18968C93189780917C0A909116
:104A20007D0A282F2F7019962C931997892F990F8B
:104A3000990B1A968C931A971C92F7011482138281
:104A40001F910F91FF90EF900895EF92FF920F93B7
:104A50001F93CF93DF938C01FC01C385D485E5843C
:104A6000F68486EB95E00E94DD099B8180E02A8137
:104A700030E0822B932B90937B0A80937A0AF70184
:104A80001082F80114821382DF91CF911F910F9150
:104A9000FF90EF90089589ED95E00E94DD0908955B
:104AA0000F931F93CF93DF93FC0103851485C58576
:104AB000D68589EF95E00E94DD09F801818180317A
:104AC00010F080E888831882DF91CF911F910F91B9
:104AD0000895EF92FF920F931F93FC01E384F484F7
:104AE000058516858EE196E00E94DD09F8011182A8
:104AF000F701818180932803F80110821F910F91A3
:104B0000FF90EF900895EF92FF920F931F937C0117
:104B1000FC01058516858FE396E00E94DD098091F2
:104B20002403F801818380912503828380912603E9
:104B30008383108283E090E0F701948383831F9145
:104B40000F91FF90EF9008958FEF8093EF0880E032
:104B500090E00E9458278093AE0A1092AF0A81E03D
:104B60008093B00A08950F931F93DF93CF9300D0E3
:104B700000D0CDB7DEB78C0186E595E00E94DD0957
:104B80001A8219821C821B82898181FD16C083FDD5
:104B900019C082FD1CC085FF04C087ED94E00E940F
:104BA000DD09C8010E94562C0F900F900F900F90B6
:104BB000CF91DF911F910F91089585E395E00E94B9
:104BC000DD09EFCF83E195E00E94DD09EACF87EFB1
:104BD00094E00E94DD09E5CF0F931F938C0184E7D9
:104BE00095E00E94DD09C8010E94B3251F910F9135
:104BF0000895EF92FF920F931F93CF93DF937C0161
:104C00008EE596E00E94DD09F701C385D485888191
:104C1000813109F4B3C08231B0F0833109F474C03A
:104C2000833108F45BC0843109F41EC1853109F475
:104C3000B9C0C7010E94E221DF91CF911F910F916E
:104C4000FF90EF900895813009F477C0813018F516
:104C5000F701E584F68485EB94E00E94DD098091FC
:104C6000AE0A8F3F09F421C189818093AE0A8A81FF
:104C700083708093AF0A81E08093B00AF7011082BD
:104C800084E994E00E94DD09DF91CF911F910F919B
:104C9000FF90EF900895823009F441C0803149F6C9
:104CA000F701058516858FE396E00E94DD09809166
:104CB0002403F80181838091250382838091260358
:104CC0008383108283E090E0F70194838383DF91F4
:104CD000CF911F910F91FF90EF900895F701E58418
:104CE000F68489EF95E00E94DD098981803118F012
:104CF00080E8F7018083F7011082DF91CF911F9147
:104D00000F91FF90EF90089589ED95E00E94DD09E5
:104D1000DF91CF911F910F91FF90EF90089584E75D
:104D200095E00E94DD09C7010E94B325DF91CF9174
:104D30001F910F91FF90EF900895F701C585D685DB
:104D400082E794E00E94DD098091B00A882309F08F
:104D5000A8C08FEF89839091AF0A93708A818C7F6E
:104D6000892B8A83188281E594E00E94DD09DF9116
:104D7000CF911F910F91FF90EF900895F701058556
:104D800016858EE196E00E94DD09F8011182898185
:104D9000809328031082DF91CF911F910F91FF9094
:104DA000EF900895F7010585168583E995E00E9447
:104DB000DD098091800A8F70F80181838091800ADB
:104DC0009091810AA091820AB091830A892F9A2F2B
:104DD000AB2FBB278F7082838091800A9091810ACC
:104DE000A091820AB091830ACD01AA27BB278F70B8
:104DF00083838091800A9091810AA091820AB09168
:104E0000830A8B2F9927AA27BB278F7084838091D1
:104E10007E0A8F70858380917E0A90917F0A892F08
:104E2000990F990B868380917A0A90917B0A282F9B
:104E30002F702783892F990F990B808780917C0A87
:104E400090917D0A282F2F702187892F990F990B18
:104E500082871082F70114821382DF91CF911F9114
:104E60000F91FF90EF900895F7010585168586EB69
:104E700095E00E94DD099B8180E02A8130E0822B51
:104E8000932B90937B0A80937A0AF8011082F701A2
:104E900014821382DF91CF911F910F91FF90EF90B9
:104EA00008958091AE0A898356CF1092B00AE6CE5B
:104EB000009711F480E20895019711F080E00895C1
:104EC000E091C405EF3F49F0EB3128F4F0E0EB53FB
:104ED000FA4F808108958FEF08958CE908958B3102
:104EE00030F4E82FF0E0EB53FA4F808108958FEF14
:104EF0000895982F20E030E005C02F5F3F4F2B3101
:104F0000310541F0F901EB53FA4F80818917A9F778
:104F1000822F08958FEF0895653009F4CDC0663073
:104F200060F0683009F499C0693008F1693009F41B
:104F3000A4C06A3009F44EC00895623009F4ACC0D0
:104F4000633050F1633009F478C06430A9F7282F3A
:104F500030E08EE790E0289FF001299FF00D389F08
:104F6000F00D1124EF54F54F85E0808308956630ED
:104F700009F453C0673001F7282F30E08EE790E046
:104F8000289FF001299FF00D389FF00D1124EF5458
:104F9000F54F8AE080830895662379F1613061F6E8
:104FA000282F30E08EE790E0289FF001299FF00D38
:104FB000389FF00D1124EF54F54F8081813009F4B2
:104FC0008CC0863009F486C08A3009F0B5CF8BE0FA
:104FD0008083089590E02EE730E0829FF001839F68
:104FE000F00D929FF00D1124EF54F54F8081823027
:104FF00009F0A2CF86E080830895282F30E08EE765
:1050000090E0289FF001299FF00D389FF00D1124AA
:10501000EF54F54F81E080830895282F30E08EE72C
:1050200090E0289FF001299FF00D389FF00D11248A
:10503000EF54F54F89E080830895282F30E08EE704
:1050400090E0289FF001299FF00D389FF00D11246A
:10505000EF54F54F84E080830895282F30E08EE7E9
:1050600090E0289FF001299FF00D389FF00D11244A
:10507000EF54F54F8CE080830895282F30E08EE7C1
:1050800090E0289FF001299FF00D389FF00D11242A
:10509000EF54F54F10820895282F30E08EE790E00E
:1050A000289FF001299FF00D389FF00D1124EF5437
:1050B000F54F83E080830895282F30E08EE790E05D
:1050C000289FF001299FF00D389FF00D1124EF5417
:1050D000F54F90CF88E08083089582E08083089523
:1050E000089580E280932F0B0895473D38F4403CAB
:1050F00040F080E896E00E94DD0908954F3FC9F333
:105100000895442329F487E996E00E94DD09089573
:10511000089587ED96E00E94DD0908950E94A5326A
:1051200081E060E90E94AC3281E064E90E94AC3227
:1051300008959F92AF92BF92CF92DF92EF92FF922B
:105140000F931F93DF93CF930F92CDB7DEB77C0100
:10515000962EA42EB22E8C010C5A1F4F85E0C82E1D
:10516000D12CC00ED11EF701D1AAC0AACE01019642
:105170000E946021F701F7A6E6A682E090E097A3DF
:1051800086A386E2F8018583F6011182B28280E26D
:10519000F801838391819370906B8081890F819551
:1051A00082838981880F880F84839C7F9183C801C3
:1051B000039665E00E944F21F801878FF70196A1C1
:1051C000995F9583090F111D01501040F8018083EC
:1051D000F701A78681E0838B858B918A0F90CF9111
:1051E000DF911F910F91FF90EF90DF90CF90BF90D4
:1051F000AF909F900895BF92CF92DF92EF92FF926F
:105200000F931F93DF93CF930F92CDB7DEB77C013F
:10521000B62EC42E8C010C5A1F4F0B5F1F4FFC0182
:1052200011AB00AB05501040CE0101960E946021E9
:10523000F701F7A6E6A617A216A2DD24D394F8017B
:10524000D58280E2838380A1805E8195828389817B
:10525000880F880F848388E18183C801039663E007
:105260000E944F21F801878FF70196A1995F9583DE
:10527000090F111D01501040F8018083F701C78606
:10528000D38AD58AB18A0F90CF91DF911F910F9168
:10529000FF90EF90DF90CF90BF900895AF92BF92B4
:1052A000CF92DF92EF92FF920F931F93DF93CF93F2
:1052B0000F92CDB7DEB77C01A62EB42E8C010C5A0E
:1052C0001F4F95E0C92ED12CC00ED11EF701D1AAD7
:1052D000C0AACE0101960E946021F701F7A6E6A6BA
:1052E00081E090E097A386A3F8011582F601118270
:1052F00080E2F8018383B08280A1805E8195828301
:1053000084E1848380EB8183C801039664E00E947A
:105310004F21F801878FF70196A1995F9583090FB7
:10532000111D01501040F8018083F701B78681E01C
:10533000838B858BA18A0F90CF91DF911F910F9165
:10534000FF90EF90DF90CF90BF90AF9008959F9225
:10535000AF92BF92CF92DF92EF92FF920F931F9383
:10536000DF93CF930F92CDB7DEB76C01962EA42EAC
:10537000B22E8C010C5A1F4F25E0E22EF12CE00ECC
:10538000F11EFC01F1AAE0AACE0101960E94602163
:10539000F601D7A6C6A686E090E097A386A387E08D
:1053A000F8018583F701118212821382F1E0BF16A2
:1053B00009F443C0BF16B0F5F70114828FEFF7016F
:1053C000868380E2F801838380818A0D81958283C0
:1053D0008981880F880F848380EB8183C8010396BD
:1053E00069E00E944F21F801878FF60196A1995F2D
:1053F0009583090F111D01501040F8018083F601BB
:10540000A78681E0838B858B918A0F90CF91DF9166
:105410001F910F91FF90EF90DF90CF90BF90AF90D2
:105420009F90089582E0B81661F0E3E0BE1631F671
:1054300082E3F70184838583C1CF8FEFF7018483F3
:10544000BDCF88ECF70184838583B8CF9F92AF925C
:10545000BF92CF92DF92EF92FF920F931F93DF9351
:10546000CF930F92CDB7DEB7962EA42EB22E0E9408
:10547000E72D6C01009709F459C08C010C5A1F4F9D
:1054800035E0E32EF12CE00EF11EFC01F1AAE0AABA
:10549000CE0101960E946021F601D7A6C6A682E041
:1054A00090E097A386A387E2F8018583F701118234
:1054B000B28280E2F801838391819370906B918333
:1054C00084818C7F84838081890F81958283898107
:1054D000880F880F84839C7F9183C801039665E0C1
:1054E0000E944F21F801878FF60196A1995F95835D
:1054F000090F111D01501040F8018083F601A786A5
:1055000081E0838B858B918AC60165E070E00E9403
:10551000172E0F90CF91DF911F910F91FF90EF9079
:10552000DF90CF90BF90AF909F9008958DEA96E066
:105530000E94DD09EECF8F929F92AF92BF92CF92E1
:10554000DF92EF92FF920F931F93DF93CF930F920F
:10555000CDB7DEB7862E942EB22EA02E0E94E72D58
:105560006C01009709F44DC08C010C5A1F4F45E0A7
:10557000E42EF12CE00EF11EFC01F1AAE0AACE010E
:1055800001960E946021F601D7A6C6A683E090E0AE
:1055900097A386A385E2F8018583F7011182B28281
:1055A000A38280E2F801838391819370906B918351
:1055B00084818C7F84838081890F81958283898116
:1055C000880F880F84839C7F9183C801039666E0CF
:1055D0000E944F21F801878FF60196A1995F95836C
:1055E000090F111D01501040F8018083F6019786C4
:1055F00081E0838B858B818AC60165E070E00E9423
:10560000172E0F90CF91DF911F910F91FF90EF9088
:10561000DF90CF90BF90AF909F908F9008954F9262
:105620005F926F927F928F929F92AF92BF92CF9232
:10563000DF92EF92FF920F931F93DF93CF930F921E
:10564000CDB7DEB7662E942E822E702E26010E94D4
:10565000E72D5C01009709F455C08C010C5A1F4FCF
:1056600055E0E52EF12CE00EF11EFC01F1AAE0AAB6
:10567000CE0101960E946021F501B7A6A6A686E09C
:1056800090E097A386A384E2F8018583F701118255
:105690008282738280EF8483DD24D394D582168244
:1056A00080E2F801838391819370906B9183848170
:1056B0008C7F84839082892D890F81958283898153
:1056C000880F880F84839C7F9183C801039669E0CB
:1056D0000E944F21F801878FF50196A1995F95836C
:1056E000090F111D01501040F8018083F50154A2EB
:1056F00043A29786D38AD58A618AC50165E070E0A6
:105700000E94172E0F90CF91DF911F910F91FF9064
:10571000EF90DF90CF90BF90AF909F908F907F9051
:105720006F905F904F9008956F927F928F929F92AB
:10573000AF92BF92CF92DF92EF92FF920F931F939F
:10574000DF93CF930F92CDB7DEB7862E942EB22E75
:10575000A02E37010E94E72D6C01009709F496C036
:105760008C010C5A1F4F65E0E62EF12CE00EF11E65
:10577000DC01D196FC92EE92D097CE0101960E9468
:105780006021F601D7A6C6A683E090E097A386A382
:1057900085E1D80115968C931597F7011182B28295
:1057A000A38280E213968C93139711969C91119784
:1057B0009370906B11969C93119714968C911497FB
:1057C0008C7F14968C9314979C92292D290F2195E8
:1057D00012962C938DB79EB708970FB6F8949EBF7C
:1057E0000FBE8DBFEDB7FEB731968AE293E0ADB73D
:1057F000BEB712969C938E93119722831382D80181
:1058000013968C9113978483158211968C918683BD
:1058100017820E9467369981990F990FF801848148
:105820008370892B848381818C7F81838DB79EB720
:1058300008960FB6F8949EBF0FBE8DBFD601969600
:105840006C916D5FC80103960E944F21F801878F0C
:10585000D60196969C919697995F15969C9315976D
:10586000090F111D01501040F801808394967C921D
:105870006E9293971F969C921F9781E053968C93FC
:10588000539755968C93559751968C920F90CF9134
:10589000DF911F910F91FF90EF90DF90CF90BF901D
:1058A000AF909F908F907F906F9008950F931F936C
:1058B000CF93DF938C01DC011B96CD91DC911C977B
:1058C000219600D088E493E0EDB7FEB79283818300
:1058D0000E946736D8011996ED91FC911A9790892C
:1058E000E5ECF5E00F900F9005C03196B5E0E03E95
:1058F000FB0719F080819817C1F78981823FB1F0C9
:10590000803F11F0833F99F100D084E695E0ADB778
:10591000BEB712969C938E9311970E9467360F9094
:105920000F90DF91CF911F910F9108958C8181305D
:1059300009F4A8C0813078F0823009F495C000D015
:1059400088EA93E0CDB7DEB79A8389830E946736F1
:105950000F900F90D9CF00D088E693E0CDB7DEB797
:105960009A8389830E9467360F900F90CDCFF801FC
:10597000A385B4858DB79EB74C970FB6F8949EBF9C
:105980000FBE8DBFEDB7FEB731968FEC93E0CDB76C
:10599000DEB79A83898314968C911497881F882781
:1059A000881F8283138214968C9114978F77848337
:1059B000158215968C9115978F7086831782159690
:1059C0008C91159782958695869583708087118630
:1059D00015968C91159782958370828713861696FB
:1059E0008C91169782958695869581708487158609
:1059F00016968C9116978295869581708687178664
:105A000016968C91169782958170808B118A1696C6
:105A10008C9116978695869586958170828B138AD0
:105A200016968C911697869586958170848B158A2B
:105A300016968C91169786958170868B178A169686
:105A40008C9116978170808F118E17968C91828F12
:105A5000138E0E946736EDB7FEB77C960FB6F894AA
:105A6000FEBF0FBEEDBF50CF00D086E993E0ADB7CB
:105A7000BEB712969C938E9311970E9467360F9033
:105A80000F9042CF00D08FE793E0EDB7FEB792833F
:105A900081830E9467360F900F9036CF8F929F922E
:105AA000AF92BF92CF92DF92EF92FF920F931F932C
:105AB000DF93CF930F92CDB7DEB76C01862E942E75
:105AC000B22EA32E00D084E895E0EDB7FEB7928306
:105AD00081830E94673686010C5A1F4F75E0E72EBE
